:020000040800F2
:10000000500D00201102000829210008710D000880
:10001000AD1D0008790600086330000800000000EC
:10002000000000000000000000000000992400080B
:100030007D06000800000000C52100088525000895
:100040002B0200082B0200082B0200082B020008DC
:100050002B0200082B0200082B0200088106000872
:100060002B0200082B0200082B0200082B020008BC
:100070002B0200082B0200082B0200082B020008AC
:100080002B0200082B0200082B0200082B0200089C
:100090002B0200082B0200082B0200082B0200088C
:1000A0002B0200082B0200082B0200082B0200087C
:1000B0002B0200082B020008952600082B020008DE
:1000C0002B0200082B0200082B0200082B0200085C
:1000D0002B020008D92B0008F52C00082B02000881
:1000E0002B0200082B0200082B0200082B0200083C
:1000F0002B0200082B0200082B0200082B0200082C
:100100002B0200082B0200082B0200082B0200081B
:100110002B0200082B0200082B0200082B0200080B
:100120002B0200082B0200082B0200082B020008FB
:1001300000F002F800F05CF80AA090E8000C82449D
:100140008344AAF10107DA4501D100F051F8AFF27A
:10015000090EBAE80F0013F0010F18BFFB1A43F0A5
:1001600001031847A46D0000C46D00000A444FF05D
:10017000000C10F8013B13F0070408BF10F8014B06
:100180001D1108BF10F8015B641E05D010F8016B4B
:10019000641E01F8016BF9D113F0080F1EBF10F8AF
:1001A000014BAD1C0C1B09D16D1E58BF01F801CBD2
:1001B000FAD505E014F8016B01F8016B6D1EF9D555
:1001C0009142D6D37047000000230024002500266A
:1001D000103A28BF78C1FBD8520728BF30C148BFAA
:1001E0000B607047002070471FB51FBD10B510BDD4
:1001F00000F0B6F81146FFF7F7FF04F07FF800F0C3
:10020000D4F803B4FFF7F2FF03BC03F0DBF90000FE
:100210000948804709480047FEE7FEE7FEE7FEE79A
:10022000FEE7FEE7FEE7FEE7FEE7FEE704480549D6
:10023000054A064B704700003526000831010008CA
:1002400050070020500D00205009002050090020C8
:10025000704700000FB4044910B503AA029800F0DB
:1002600049F810BC5DF814FB380000202DE9F0417E
:100270000E460446002020622046E168884730B3DD
:10028000252805D0D4E901219047206A401CF2E7D7
:10029000E168204600278847050018D0A5F14100F5
:1002A000192802D820354FF40067324629462046E7
:1002B0002760FFF797FF40B1012804D0F61D26F014
:1002C00007060836D8E7361DD6E72846DAE7206A5B
:1002D000BDE8F081704770477047704710B500F077
:1002E0001BF8006810BD10B5044600F015F8046056
:1002F00010BD0000074B70B50D467B4400F015F8AB
:100300000446284600F024F810B14FF0FF3070BDCD
:10031000204670BD9F3E000000487047F006002058
:1003200001694A1C02610878704700B58FB0CDE9B9
:1003300001310021059105497944CDE903101146A9
:100340006846FFF793FF0FB000BD0000E5FFFFFF19
:10035000007B00F08000704700487047F0060020E6
:100360007546FFF7F9FFAE4605006946534620F093
:100370000700854618B020B5FFF758FFBDE82040BC
:100380004FF000064FF000074FF000084FF0000B51
:1003900021F00701AC46ACE8C009ACE8C009ACE804
:1003A000C009ACE8C0098D4670470446AFF3008031
:1003B0002046FFF726FF00002DE9F04F8DB0002406
:1003C000A246AA222146641CA54842542146641C28
:1003D000425401222146641C425400222146641CDE
:1003E0004254A04A9168906806F0BAFA9D4A01907A
:1003F0005168506806F0B4FA0090019906F0AAF826
:100400002107029006F0ACFA83464FF07E5106F0C9
:10041000D5FB039006F072F805460E46914A5168E6
:10042000106806F09DFA8F4A0290D168906806F035
:1004300097FA0190029906F08DF88346210706F09D
:100440008FFA039006F05AF807462A46334603F01F
:1004500005FB0022844BCDE9040105F03FFD00229D
:10046000824BCDE9060105F039FD814A814BCDE98A
:10047000080105F06FFBCDE90A0105F0C3FC0C9003
:100480009DF831202146641C754842549DF8302067
:100490002146641C4254734A9168106806F060FA61
:1004A000704A0490D168506806F05AFA0390049993
:1004B00006F08EFB8346610706F052FA059006F0BF
:1004C0001DF8CDE9060103F081F80022664BCDE965
:1004D000080105F003FD07460022644B05F0FEFC11
:1004E000634A644BCDE90A0105F034FB054605F08B
:1004F00089FC0C909DF831202146641C58484254D8
:100500009DF830202046611CCCB255490A54554A0A
:10051000D168D06806F024FA524A01909168906838
:1005200006F01EFA0090019906F014F883464FF089
:10053000804106F015FA80464FF07E5106F03EFBF2
:10054000074605F0DBFF05460E46464AD1681068AF
:1005500006F006FA8346434A9168506806F000FAAE
:100560005946019005F0F6FF80464FF0804106F0B5
:10057000F7F9074605F0C2FF2A463346CDE90201E6
:1005800003F06CFA0022384BCDE9040105F0A6FC1B
:100590000022364BCDE9060105F0A0FC344A354B6C
:1005A000CDE9080105F0D6FACDE90A0105F02AFCEB
:1005B0000C909DF831202046611CCCB228490A5489
:1005C0009DF830202046611CCCB225490A540020F9
:1005D0000C909DF833202046611CCCB220490A546F
:1005E0009DF832202046611CCCB21D490A549DF86A
:1005F00031202046611CCCB219490A549DF83020A4
:100600002046611CCCB216490A5401222046611CC6
:10061000CCB213490A542046611CCCB210490A548A
:10062000201FC87000BF4FF0000909E00C4810F807
:100630000900504400F0FF0A09F1010000F0FF0931
:10064000A145F3DB2046611CCCB2054901F800A0AE
:100650002146034802F0F8FA0DB0BDE8F08F000023
:100660008C040020080300200000594000806640F0
:100670004AD8124DFB21094000BFFEE77047000039
:1006800010B5022000F058F800283CD0204800881F
:10069000401C1F4908800846008801280BD11D48CE
:1006A0000088401C1B49088003F09CFE1A49086022
:1006B00000F066F927E003F095FE18490860002075
:1006C0001749087000F084F9002011490880134888
:1006D000006811490968401A124908600F4800680B
:1006E0000D490968401A4FF4AA7148434FF4FA6162
:1006F000B0FBF1F4204606F0EBF80B49086004214A
:10070000094802F0C9FA022000F010F810BD0000FC
:100710006A010020680100205C01002060010020C7
:1007200050010020640100205401002001490860AC
:100730007047000014040140014600200022074BCE
:100740001B6803EA0102054B14331B680B4013B10D
:100750000AB1012000E000207047000000040140C1
:10076000002123498279002A3AD00A461268036898
:100770009A430B461A600A1D126803689A430B1DC0
:100780001A60027911440A6803681A430A60184A19
:100790000832126803689A43154B08331A601A1D11
:1007A000126803689A43124B0C331A604279102A7C
:1007B0000ED11A1F126803681A430D4B08331A60D2
:1007C0001A1D126803681A43094B0C331A600DE0B6
:1007D0000749427911440A6803681A430A6005E030
:1007E000027911440A6803689A430A60704700005E
:1007F0000004014008B54FF4A06001F0D9FC0720C7
:100800008DF8000000208DF8010002208DF8020014
:1008100001208DF80300684601F092FC08BD00003D
:1008200030B500228B071C0F0F2303FA04F20B4B89
:100830008C1053F824309343084C8D1044F8253025
:1008400023468C1053F824308C07240F00FA04F44C
:100850002343024C8D1044F8253030BD0800014080
:100860002DE9F04102460025002600200023002447
:10087000002791F803C00CF00F0591F803C00CF0AD
:10088000100CBCF1000F03D091F802C04CEA050532
:1008900091F800C0BCF1000F31D0146800202BE0AB
:1008A0004FF0010C0CFA00F3B1F800C00CEA03069B
:1008B0009E4220D183004FF00F0C0CFA03F7BC438B
:1008C00005FA03FC4CEA040491F803C0BCF1280FBC
:1008D00006D14FF0010C0CFA00FCC2F814C00AE07B
:1008E00091F803C0BCF1480F05D14FF0010C0CFA90
:1008F00000FCC2F810C0401C0828D1D31460B1F825
:1009000000C0BCF1FF0F34DD546800202EE000F180
:10091000080C4FF0010808FA0CF3B1F800C00CEA1B
:1009200003069E4221D183004FF00F0C0CFA03F70F
:10093000BC4305FA03FC4CEA040491F803C0BCF183
:10094000280F05D100F1080C08FA0CF8C2F8148041
:1009500091F803C0BCF1480F07D100F1080C4FF02B
:10096000010808FA0CF8C2F81080401C0828CED301
:100970005460BDE8F081416170470161704700003B
:100980000EB50121042001F03FFC0220ADF8080063
:1009900048208DF80B0003208DF80A0002A90B48AF
:1009A000FFF75EFF01210020FFF73AFF02200090D1
:1009B00000208DF804000C208DF8050001208DF832
:1009C00006006846FFF7CCFE0EBD0000000801409F
:1009D0000EB50121042001F017FC0220ADF808003B
:1009E00028208DF80B0003208DF80A0002A90B487F
:1009F000FFF736FF01210020FFF712FF02200090D1
:100A000000208DF8040008208DF8050001208DF8E5
:100A100006006846FFF7A4FE0EBD00000008014076
:100A20001CB500240AE0074B01AA911E684600F09D
:100A30000BF8C82003F0A5FB601CC4B2322CF2DB1B
:100A40001CBD00009C0200202DE9FC4105460E461D
:100A500017461C4600208DF805008DF804008DF81F
:100A600003008DF802008DF801008DF800000320CE
:100A700000F0F0F88DF80000042000F0EBF88DF89D
:100A80000100052000F0E6F88DF80200062000F0D5
:100A9000E1F88DF80300072000F0DCF88DF8040081
:100AA000082000F0D7F88DF805009DF801109DF89A
:100AB000002041EA022005F0F3FE8046204905F0BF
:100AC000BDFD60629DF805109DF8042041EA0220FA
:100AD00005F0E6FE80461A4905F0B0FDA0629DF8DB
:100AE00003109DF8022041EA022005F0D9FE80465D
:100AF000134905F0A3FDE0629DF803309DF802C0A4
:100B000043EA0C231AB29DF805309DF804C043EA6D
:100B10000C2319B29DF801309DF800C043EA0C2364
:100B200018B200F011F80748808A28800548408DE7
:100B300030800448B0F840003880BDE8FC810000F7
:100B400000408844EE050020F0B503460C46002125
:100B5000012019E02B4D35F81060451E294F27F86C
:100B6000156007F1160535F81070451E254E16362E
:100B700026F8157006F1160535F81070451E163664
:100B800026F81570451CE8B20A28E3DB1D4D6B8280
:100B90002C85EA870021002005E01A4D35F9105018
:100BA0002944451CE8B20A28F7DB0A2591FBF5F534
:100BB0002DB2144EB5820021002006E0114D1635ED
:100BC00035F910502944451CE8B20A28F6DB0A25FD
:100BD00091FBF5F52EB20B4D6E850021002006E04D
:100BE000084D2C3535F910502944451CE8B20A2827
:100BF000F6DB0A2591FBF5F52EB2024DA5F8406013
:100C0000F0BD0000EE0500203EB504460E4B6A46DE
:100C100001A902A8FFF718FFBDF9080005F040FE82
:100C200005460A4905F0D4FFA064BDF9040005F0AB
:100C300037FE0546064905F08DFCE064BDF900006D
:100C400005F02EFE20653EBD9C0200200000B04154
:100C500000000B4370B5044602210848FFF78BFEE5
:100C600044F0800001F0B6FBFF2001F0B3FB054625
:100C700002210248FFF781FE284670BD000C0140AA
:100C800070B505460C4602210748FFF774FE28465A
:100C900001F0A0FB0646204601F09CFB0221024821
:100CA000FFF76BFE304670BD000C014008B50A200E
:100CB000FFF7D0FF8DF800000B20FFF7CBFF8DF87A
:100CC00001000C20FFF7C6FF8DF802009DF8000020
:100CD00048280BD19DF80100342807D19DF8020067
:100CE000332803D103A0FFF7B5FA02E008A0FFF70D
:100CF000B1FA08BD484D43353838334C2063686538
:100D0000636B20737563636573732E2E2E0D0A005B
:100D1000484D43353838334C206E6F7420666F75FC
:100D20006E642E2E2E0D0A0010B5FFF7BFFFBC21FA
:100D30000020FFF7A5FF20210120FFF7A1FF0021E0
:100D40000220FFF79DFFFFF76BFE02A0FFF782FA7C
:100D500010BD0000484D43353838334C207365745E
:100D600020636F6D706C657465642E2E2E0D0A0005
:100D700000BFFEE710B5012005498870054800F066
:100D8000D1FE0448FFF740FF00200149887010BDE4
:100D9000010000209C02002010B5FFF70DFB10BDE4
:100DA00010B503F049F810BD704770472DE9F047C2
:100DB00004460025002600212548006805F09CFD1A
:100DC00002D82046BDE8F087224801682248006822
:100DD00005F0C6FD8046214801682148006805F0FD
:100DE000BFFD8146214605F0E9FE0746414605F074
:100DF000EFFE0546284602F067F918B9284602F0CA
:100E000059F900B12546174801681348006805F0F4
:100E1000A7FD8046144801681148006805F0A0FD50
:100E2000814612480168284605F09AFD82464946E7
:100E300005F090FB0746414605F08CFB0646084846
:100E4000006805490860064805603046BAE70000BA
:100E50004800002050000020640000204C000020CA
:100E6000600000205C00002058000020540000209A
:100E70002DE9F0470446002500260021254800689A
:100E800005F03AFD02D82046BDE8F0872248016807
:100E90002248006805F064FD804621480168214829
:100EA000006805F05DFD8146214605F087FE074696
:100EB000414605F08DFE0546284602F005F918B9B1
:100EC000284602F0F7F800B1254617480168134894
:100ED000006805F045FD8046144801681148006827
:100EE00005F03EFD814612480168284605F038FDB0
:100EF0008246494605F02EFB0746414605F02AFB8F
:100F000006460848006805490860064805603046FE
:100F1000BAE7000068000020700000208400002074
:100F20006C000020800000207C0000207800002061
:100F3000740000202DE9F04704460025002600211A
:100F40002548006805F0D8FC02D82046BDE8F087A7
:100F5000224801682248006805F002FD80462148C9
:100F600001682148006805F0FBFC8146214605F038
:100F700025FE0746414605F02BFE0546284602F0B1
:100F8000A3F818B9284602F095F800B1254617488D
:100F900001681348006805F0E3FC804614480168C6
:100FA0001148006805F0DCFC8146124801682846BB
:100FB00005F0D6FC8246494605F0CCFA0746414684
:100FC00005F0C8FA06460848006805490860064862
:100FD00005603046BAE7000088000020900000203D
:100FE000A40000208C000020A00000209C00002015
:100FF00098000020940000202DE9F04704460025C9
:10100000002600212548006805F076FC02D820461D
:10101000BDE8F087224801682248006805F0A0FC7E
:101020008046214801682148006805F099FC814606
:10103000214605F0C3FD0746414605F0C9FD0546BA
:10104000284602F041F818B9284602F033F800B1FA
:101050002546174801681348006805F081FC804662
:10106000144801681148006805F07AFC814612486E
:101070000168284605F074FC8246494605F06AFA84
:101080000746414605F066FA0646084800680549E5
:101090000860064805603046BAE70000A800002056
:1010A000B0000020C4000020AC000020C0000020E0
:1010B000BC000020B8000020B40000202DE9F0475B
:1010C00004460025002600212548006805F014FC90
:1010D00002D82046BDE8F08722480168224800680F
:1010E00005F03EFC8046214801682148006805F073
:1010F00037FC8146214605F061FD0746414605F073
:1011000067FD0546284601F0DFFF18B9284601F0C3
:10111000D1FF00B12546174801681348006805F063
:101120001FFC8046144801681148006805F018FC4F
:10113000814612480168284605F012FC824649465D
:1011400005F008FA0746414605F004FA0646084845
:10115000006805490860064805603046BAE70000A7
:10116000C8000020D0000020E4000020CC000020B7
:10117000E0000020DC000020D8000020D400002087
:101180002DE9F04704460025002600212548006887
:1011900005F0B2FB02D82046BDE8F087224801687E
:1011A0002248006805F0DCFB8046214801682148A0
:1011B000006805F0D5FB8146214605F0FFFC074697
:1011C000414605F005FD0546284601F07DFF18B9AA
:1011D000284601F06FFF00B1254617480168134803
:1011E000006805F0BDFB804614480168114800689E
:1011F00005F0B6FB814612480168284605F0B0FBB1
:101200008246494605F0A6F90746414605F0A2F98F
:1012100006460848006805490860064805603046EB
:10122000BAE70000E8000020F000002004010020E0
:10123000EC00002000010020FC000020F80000204D
:10124000F40000202DE9FE4F82460C46002002905B
:10125000814601902146504605F0F0F9029002982F
:1012600005F04CF907463A460B463C483C4904F029
:1012700071FC054604F080FB834603F055FA814675
:101280004946484605F06CFB8046364802F098FE19
:1012900083464FF0804105F063FB0746494605F061
:1012A0005FFB06464FF07E5105F054F90546414676
:1012B00005F050F901902C4804600021006805F009
:1012C0001BFC49D24946484605F04AFB05460199B0
:1012D00005F0B4F925490860084601684FF08040E0
:1012E00005F03EFB2249086020480068214908605B
:1012F0004946484605F034FB07464FF07E5105F05D
:1013000067FC06464FF0804105F02AFB054601992F
:1013100005F094F9184908604946484605F020FB55
:101320000090104802F04CFE83464FF0804105F0DB
:1013300017FB8046494605F013FB07464FF07E51E8
:1013400005F03CFC0646009905F004F905460199B4
:1013500005F074F909490860BDE8FE8F4AD8124DBE
:10136000FB210940DA0F493F4800002054000020CB
:10137000580000205C0000204C000020500000209D
:101380002DE9FE4F82460C460020029081460190D6
:101390002146504605F052F90290029805F0AEF849
:1013A00007463A460B463C483C4904F0D3FB054609
:1013B00004F0E2FA834603F0B7F98146494648460D
:1013C00005F0CEFA8046364802F0FAFD83464FF02B
:1013D000804105F0C5FA0746494605F0C1FA0646C0
:1013E0004FF07E5105F0B6F80546414605F0B2F8DB
:1013F00001902C4804600021006805F07DFB49D273
:101400004946484605F0ACFA0546019905F016F93B
:1014100025490860084601684FF0804005F0A0FAB1
:10142000224908602048006821490860494648462A
:1014300005F096FA07464FF07E5105F0C9FB0646C7
:101440004FF0804105F08CFA0546019905F0F6F859
:10145000184908604946484605F082FA009010484D
:1014600002F0AEFD83464FF0804105F079FA8046E8
:10147000494605F075FA07464FF07E5105F09EFB90
:101480000646009905F066F80546019905F0D6F87C
:1014900009490860BDE8FE8F4AD8124DFB2109407A
:1014A000DA0F493F68000020740000207800002017
:1014B0007C0000206C000020700000202DE9FE4F11
:1014C00082460C46002002908146019021465046FB
:1014D00005F0B4F80290029805F010F807463A4675
:1014E0000B463C483C4904F035FB054604F044FA01
:1014F000834603F019F981464946484605F030FA1B
:101500008046364802F05CFD83464FF0804105F08E
:1015100027FA0746494605F023FA06464FF07E5162
:1015200005F018F80546414605F014F801902C48DE
:1015300004600021006805F0DFFA49D249464846B8
:1015400005F00EFA0546019905F078F8254908607E
:10155000084601684FF0804005F002FA2249086011
:1015600020480068214908604946484605F0F8F9D6
:1015700007464FF07E5105F02BFB06464FF08041A9
:1015800005F0EEF90546019905F058F8184908608C
:101590004946484605F0E4F90090104802F010FD75
:1015A00083464FF0804105F0DBF98046494605F05F
:1015B000D7F907464FF07E5105F000FB064600992B
:1015C00004F0C8FF0546019905F038F8094908609C
:1015D000BDE8FE8F4AD8124DFB210940DA0F493F82
:1015E0008800002094000020980000209C0000202B
:1015F0008C000020900000202DE9FE4F82460C4612
:1016000000200290814601902146504605F016F8D0
:101610000290029804F072FF07463A460B463C4897
:101620003C4904F097FA054604F0A6F9834603F016
:101630007BF881464946484605F092F9804636488F
:1016400002F0BEFC83464FF0804105F089F9074661
:10165000494605F085F906464FF07E5104F07AFFC1
:101660000546414604F076FF01902C4804600021B5
:10167000006805F041FA49D24946484605F070F93C
:101680000546019904F0DAFF25490860084601681B
:101690004FF0804005F064F9224908602048006856
:1016A000214908604946484605F05AF907464FF077
:1016B0007E5105F08DFA06464FF0804105F050F955
:1016C0000546019904F0BAFF1849086049464846A2
:1016D00005F046F90090104802F072FC83464FF086
:1016E000804105F03DF98046494605F039F9074645
:1016F0004FF07E5105F062FA0646009904F02AFF89
:101700000546019904F09AFF09490860BDE8FE8F7B
:101710004AD8124DFB210940DA0F493FA8000020AA
:10172000B4000020B8000020BC000020AC00002065
:10173000B00000202DE9FE4F82460C4600200290AA
:10174000814601902146504604F078FF02900298AD
:1017500004F0D4FE07463A460B463C483C4904F0A8
:10176000F9F9054604F008F9834602F0DDFF8146E9
:101770004946484605F0F4F88046364802F020FC19
:1017800083464FF0804105F0EBF80746494605F0E7
:10179000E7F806464FF07E5104F0DCFE0546414670
:1017A00004F0D8FE01902C4804600021006805F088
:1017B000A3F949D24946484605F0D2F805460199B1
:1017C00004F03CFF25490860084601684FF080405E
:1017D00005F0C6F8224908602048006821490860E1
:1017E0004946484605F0BCF807464FF07E5105F0E3
:1017F000EFF906464FF0804105F0B2F80546019931
:1018000004F01CFF184908604946484605F0A8F84E
:101810000090104802F0D4FB83464FF0804105F061
:101820009FF88046494605F09BF807464FF07E51E9
:1018300005F0C4F90646009904F08CFE05460199AE
:1018400004F0FCFE09490860BDE8FE8F4AD8124D3D
:10185000FB210940DA0F493FC8000020D4000020D6
:10186000D8000020DC000020CC000020D0000020A8
:101870002DE9FE4F82460C460020029081460190E1
:101880002146504604F0DAFE0290029804F036FE3B
:1018900007463A460B463C483C4904F05BF905468E
:1018A00004F06AF8834602F03FFF81464946484605
:1018B00005F056F88046364802F082FB83464FF02A
:1018C000804105F04DF80746494605F049F80646BF
:1018D0004FF07E5104F03EFE0546414604F03AFECC
:1018E00001902C4804600021006805F005F949D2F8
:1018F0004946484605F034F80546019904F09EFE35
:1019000025490860084601684FF0804005F028F836
:101910002249086020480068214908604946484635
:1019200005F01EF807464FF07E5105F051F90646C6
:101930004FF0804105F014F80546019904F07EFE51
:10194000184908604946484605F00AF800901048D2
:1019500002F036FB83464FF0804105F001F88046E7
:10196000494604F0FDFF07464FF07E5105F026F989
:101970000646009904F0EEFD0546019904F05EFE6E
:1019800009490860BDE8FE8F4AD8124DFB21094085
:10199000DA0F493FE8000020F4000020F8000020A2
:1019A000FC000020EC000020F000002010B50C49E5
:1019B0000C48FFF747FC0A490A48FFF7E1FC0849D1
:1019C0000848FFF77BFD06490648FFF715FE044966
:1019D0000448FFF7AFFE02490248FFF749FF10BD78
:1019E0000000F0410000C84270B50546002403E045
:1019F000284600F097F8641C322CF9DB70BD00001B
:101A000070B5044601210848FEF7B5FF44F0800098
:101A100000F0E0FCFF2000F0DDFC0546012102485B
:101A2000FEF7ABFF284670BD000C014070B50546BF
:101A30000C4601210748FEF79EFF284600F0CAFC2D
:101A40000646204600F0C6FC01210248FEF795FF3D
:101A5000304670BD000C014010B57520FFF7D0FF77
:101A60000446702C03D104A0FEF7F4FB02E007A0AB
:101A7000FEF7F0FB10BD00006D707536353030207C
:101A8000666F756E642E2E2E000000006D70753628
:101A9000353030206E6F7420666F756E642E2E2E7A
:101AA0000000000010B5FFF7D7FF80216B20FFF783
:101AB000BDFF642002F054FB07216820FFF7B6FF4A
:101AC000642002F04DFB01216B20FFF7AFFF0021E6
:101AD0006C20FFF7ABFF02211A20FFF7A7FF0021C0
:101AE0001920FFF7A3FF18211B20FFF79FFF1021EC
:101AF0001C20FFF79BFF00211D20FFF797FF02A08E
:101B0000FEF7A8FB10BD00006D7075363530302033
:101B100073657420636F6D706C657465642E2E2E12
:101B2000000000002DE9F04788B0044601218048FC
:101B3000FEF721FFBB2000F04DFC4FF0000909E04B
:101B4000FF2000F047FC04A901F8090009F1010099
:101B500000F0FF09B9F10E0FF2DB9DF811009DF8BE
:101B6000101040EA012000B2ADF808009DF8130003
:101B70009DF8121040EA012000B2ADF80A009DF86D
:101B800015009DF8141040EA012000B2ADF80C00D9
:101B90009DF819009DF8181040EA012000B2ADF838
:101BA00000009DF81B009DF81A1040EA012000B2C9
:101BB000ADF802009DF81D009DF81C1040EA0120C0
:101BC00000B2ADF8040001215948FEF7D6FEBDF978
:101BD000080004F065FE05464FF08B4104F02EFD31
:101BE0002060BDF90A0004F05BFE05464FF08B4112
:101BF00004F024FD6060BDF90C0004F051FE0546C0
:101C00004FF08B4104F01AFDA060BDF9000004F014
:101C100047FE824604F072FC0746464A464B03F0F4
:101C200099FF054603F0A8FEE060BDF9020004F04C
:101C300037FE824604F062FC05463E4A3E4B03F006
:101C400089FF074603F098FE2061BDF9040004F007
:101C500027FE824604F052FC0546364A364B03F016
:101C600079FF074603F088FE606134480078012858
:101C700037D13348006832281ADA324AE1681068EE
:101C800004F068FC2F4908602E4A2169506804F06E
:101C900061FC2C4948602B4A6169906804F05AFC49
:101CA0002849886026480068401C254908603CE0B7
:101CB00000202249087023490868234904F0BEFC2B
:101CC000224988611F4948681F4904F0B7FC1F4931
:101CD000C8611C4988681C4904F0B0FC1B490862B3
:101CE00023E02068FFF762F820636068FFF7C0F820
:101CF0006063A068FFF71EF9A063A169E06804F0C3
:101D000067FF0546FFF778F9E063E169206904F0B1
:101D10005FFF0546FFF7D2F92064216A606904F08D
:101D200057FF0546FFF72CFA606408B0BDE8F0875E
:101D3000000C0140FCA9F1D24D62304001000020AE
:101D40004801002030060020000048429C0200208C
:101D5000002013490861C860142048610020886190
:101D6000C8610846006840F0010008600846406805
:101D70000C4908400A494860084600680A4908407A
:101D8000074908600846006820F48020086008467B
:101D9000406820F4FE004860002088607047000022
:101DA000001002400000FFF8FFFFF6FE00BFFEE754
:101DB00008B50120ADF8000010208DF803000320C5
:101DC0008DF8020069460F48FEF74AFD0220ADF883
:101DD000000010208DF8030003208DF802006946F2
:101DE0000848FEF73DFD0420ADF8000010208DF8F6
:101DF000030003208DF8020069460248FEF730FD1B
:101E000008BD0000000C01400FB591B0C5488068C6
:101E10000790C44800680690079904F0A1FD099056
:101E2000C048C0680790BF4840680690079904F012
:101E300097FD0890099904F0CBFE4FF080410A907D
:101E400004F08EFD0B90149904F08AFD0D90B548B6
:101E5000C0680590B34800680490059904F080FDBF
:101E60000790B04880680590AE4840680490059996
:101E700004F076FD0690079904F06CFB4FF080416A
:101E8000089004F06DFD0990139904F069FD0B9022
:101E9000A448C0680690A348C0680590069904F05D
:101EA0005FFD08909F48806804909E48806803907A
:101EB000049904F055FD06909A48406802909948AC
:101EC00040680190029904F04BFD04909548006829
:101ED0000290944800680190029904F041FD03903B
:101EE000049904F037FB0590069904F071FE079001
:101EF000089904F06DFE0990129904F031FD0A90E2
:101F00000B9904F027FB0C900D9904F023FB0E9025
:101F1000844840680790834800680690079904F059
:101F20001FFD09907F48C06807907E488068069032
:101F3000079904F015FD0890099904F00BFB4FF088
:101F400080410A9004F00CFD0B90149904F008FDF8
:101F50000D907448C0680590724800680490059917
:101F600004F0FEFC07906F48806805906D4840685B
:101F70000490059904F0F4FC0690079904F028FEFB
:101F80004FF08041089004F0EBFC0990129904F0A6
:101F9000E7FC0B906348C06806906248C0680590F3
:101FA000069904F0DDFC08905E48806804905D4866
:101FB00080680390049904F0D3FC06905948406867
:101FC0000290584840680190029904F0C9FC0490BE
:101FD000544800680290534800680190029904F048
:101FE000BFFC0390049904F0F3FD0590069904F0FA
:101FF000B1FA0790089904F0EBFD0990139904F0E9
:10200000AFFC0A900B9904F0A5FA0C900D9904F01E
:10201000A1FA0F90434880680790424800680690F4
:10202000079904F09DFC09903E48C06807903D4820
:1020300040680690079904F093FC0890099904F011
:1020400089FA4FF080410A9004F08AFC0B901299B3
:1020500004F086FC0D9033484068059031480068D4
:102060000490059904F07CFC07902E488068059048
:102070002C48C0680490059904F072FC06900799FA
:1020800004F0A6FD4FF08041089004F069FC09902F
:10209000139904F065FC0B902248C0680690214813
:1020A000C0680590069904F05BFC08901D488068A4
:1020B00004901C4880680390049904F051FC069039
:1020C000184840680290174840680190029904F04F
:1020D00047FC049013480068029012480068019081
:1020E000029904F03DFC0390049904F071FD059001
:1020F000069904F06DFD0790089904F02BFA0990F9
:10210000149904F02DFC0A900B9904F023FA0C901A
:102110000D9904F01FFA10900EA90EC911980EC067
:1021200015B000BD08030020704710B500F090FC0A
:10213000FEF760FB00F0CAFD00F09EFC10BD000041
:1021400070B5002100230F22C47804B3154C246815
:1021500004F4E064C4F5E064210AC1F10403CA4058
:10216000447804FA03F184781440214309010E4CA9
:102170000678A155047804F01F050124AC400578C9
:102180006D11AD0005F1E025C5F8004109E00478C6
:1021900004F01F050124AC40044D0678761145F883
:1021A000264070BD0CED00E000E400E080E100E0BE
:1021B00002490143024A1160704700000000FA051D
:1021C0000CED00E07047000029B1064AD2690243D5
:1021D000044BDA6104E0034AD2698243014BDA61BD
:1021E000704700000010024029B1064A12690243FC
:1021F000044B1A6104E0034A12698243014B1A61DD
:10220000704700000010024029B1064A926902435B
:10221000044B9A6104E0034A92698243014B9A613C
:10222000704700000010024029B1064AD2680243FC
:10223000044BDA6004E0034AD2688243014BDA605F
:10224000704700000010024030B500210022002439
:1022500000232D4D6D6805F00C0121B1042905D036
:10226000082923D105E0294D056022E0274D0560AE
:102270001FE0254D6D6805F47012234D6D6805F45F
:102280008034022505EB92421CB9214D554305606F
:102290000BE01D4D6D6805F400351DB11C4D554317
:1022A000056002E0194D5543056002E0174D0560D9
:1022B00000BF00BF144D6D6805F0F0010909154D10
:1022C0006B5C0568DD4045600F4D6D6805F4E061AD
:1022D000090A104D6B5C4568DD4085600A4D6D68EC
:1022E00005F46051C90A0B4D6B5C4568DD40C56063
:1022F000054D6D6805F44041890B074D6B5CC56861
:10230000B5FBF3F5056130BD0010024000127A0004
:1023100000093D001C0000202C00002000B587B003
:1023200001210C20FFF770FF01210803FFF76CFF6C
:10233000E020ADF8180018208DF81B0003208DF860
:102340001A0006A92048FEF78BFAFFF731FD02219B
:102350001E48FEF712FB04211C48FEF70EFB01216C
:102360001A48FEF70AFBE0211748FEF706FB00219A
:10237000174800F059F80020ADF804004FF48270BF
:10238000ADF806000020ADF80800ADF80A00ADF881
:102390000C004FF40070ADF80E001020ADF81000E6
:1023A0000020ADF812000720ADF8140001A908487C
:1023B00000F054F80121064800F036F8FF2000F044
:1023C00009F807B000BD000000080140000C014002
:1023D0000030014070B50546002405E0601CC4B221
:1023E000FA2C01DD002070BD02210E4800F028F813
:1023F0000028F3D029460B4800F02EF8002405E011
:10240000601CC4B2FA2C01DD0020ECE70121054874
:1024100000F016F80028F3D0024800F01AF8C0B215
:10242000E1E700000030014021B1028842F04002A3
:10243000028004E002884FF6BF731A4002807047A2
:102440000246002013890B400BB1012000E0002060
:1024500070470146888970478181704710B5002216
:10246000028802F441520B884C8823438C88234312
:10247000CC8823430C8923434C8923438C892343F1
:10248000CC8923431A430280838B4FF2FF7423408D
:1024900083830B8A038210BD704710B500F002F8E9
:1024A00010BD00000CB5002001900090334800687A
:1024B00040F480303149086000BF3048006800F4C3
:1024C000003000900198401C0190009818B90198C4
:1024D000B0F5A06FF1D12948006800F4003010B1C8
:1024E0000120009001E0002000900098012843D1D5
:1024F0002348006840F01000214908600846006841
:1025000020F0030008600846006840F00200086000
:102510001A484068194948600846406848600846BB
:10252000406840F4806048600846406820F47C10B1
:1025300048600846406840F4E81048600846006873
:1025400040F08070086000BF0C48006800F0007028
:102550000028F9D00948406820F003000749486086
:102560000846406840F00200486000BF03484068E9
:1025700000F00C000828F9D10CBD0000001002404A
:102580000020024002480068401C01490860704772
:102590003400002000B502460023FFF7D9FB224893
:1025A000006840F480302049086000BF1E48006881
:1025B000400C0028FAD04FF480601B494860901E00
:1025C000C2B20846406840EA824048600846406817
:1025D00040F4803048601548006840F032001349EC
:1025E00008601148006840F080700F49086000BF23
:1025F0000D480068400E0028FAD00B48406840F0B3
:1026000002000949486005E007484068C0F38703B5
:1026100003F00303022BF7D1901CC006000E0449FF
:1026200008700846007800BD0010024000200240FB
:102630004000002010B51348006840F00100114927
:10264000086008464068104908400E49486008463E
:1026500000680E4908400B4908600846006820F4ED
:10266000802008600846406820F4FE0048604FF46F
:102670001F008860FFF711FF4FF0006004490860F9
:1026800010BD0000001002400000FFF8FFFFF6FE42
:1026900008ED00E010B50121104800F06DF9E0B13F
:1026A0000F480078401C0E4908700E480078401C06
:1026B0000C4908700C480078401C0B4908700B4806
:1026C0000078401C0949087009480078401C0849F6
:1026D00008700121014800F04CF810BD00080040CE
:1026E0004100002042000020430000204400002060
:1026F000450000203EB505460C4601210420FFF7A9
:1027000063FD124800F044F8A0B2ADF80400681E62
:1027100080B2ADF800000020ADF80600ADF8020070
:1027200069460A4800F042F90121084800F01EF805
:1027300001221146054800F030F90121034800F05C
:102740001BF803A0FDF786FD3EBD00000008004019
:1027500054696D6572203420696E697420737563E5
:10276000636573732E2E2E0D0A000000CA43028289
:102770007047CA430282704721B1028842F00102C9
:10278000028004E002884FF6FE731A400280704710
:1027900010B504466848844208D10121C014FFF7EF
:1027A00043FD0021E014FFF73FFDC4E0B4F1804F8A
:1027B00008D101210846FFF717FD00210120FFF78E
:1027C00013FDB8E05D48844208D101210220FFF7E3
:1027D0000BFD00210220FFF707FDACE058488442C2
:1027E00008D101210420FFF7FFFC00210420FFF79E
:1027F000FBFCA0E05348844208D101210820FFF7E8
:10280000F3FC00210820FFF7EFFC94E04E488442DF
:1028100008D101211020FFF7E7FC00211020FFF76D
:10282000E3FC88E04948844208D101212020FFF7D9
:10283000DBFC00212020FFF7D7FC7CE044488442E9
:1028400008D101214014FFF7EFFC00216014FFF7CD
:10285000EBFC70E03F48844209D10121C804FFF736
:10286000E3FC00214FF40020FFF7DEFC63E03A4870
:10287000844209D101210805FFF7D6FC00214FF45D
:102880008010FFF7D1FC56E03448844209D1012181
:102890004805FFF7C9FC00214FF40010FFF7C4FC06
:1028A00049E02F48844208D101214020FFF79CFCD9
:1028B00000214020FFF798FC3DE02A48844208D1DF
:1028C00001218020FFF790FC00218020FFF78CFC85
:1028D00031E02548844208D101218015FFF784FCAE
:1028E0000021A015FFF780FC25E02048844209D193
:1028F00001210804FFF798FC00214FF48030FFF716
:1029000093FC18E01A48844209D101214804FFF7DA
:102910008BFC00214FF40030FFF786FC0BE01548DC
:10292000844208D101218804FFF77EFC00214FF486
:102930008020FFF779FC10BD002C0140000400400E
:1029400000080040000C004000100040001400404F
:1029500000340140004C014000500140005401404F
:1029600000180040001C00400020004000400140D2
:10297000004401400048014030B5024600200023D9
:102980000024158A05EA0103958905EA010413B1BB
:102990000CB1012000E0002030BD1AB183890B4347
:1029A000838102E083898B43838170470022028800
:1029B0001D4B98420ED01D4B98420BD0B0F1804F6A
:1029C00008D01B4B984205D01A4B984202D01A4BA4
:1029D000984204D14FF68F731A404B881A43174B15
:1029E000984207D0164B984204D04FF6FF431A4046
:1029F000CB881A4302808B8883850B8803850A4B1A
:102A000098420BD0094B984208D00E4B984205D003
:102A10000D4B984202D00D4B984201D10B7A0386A0
:102A20000123838270470000002C014000340140E4
:102A30000004004000080040000C0040001000406E
:102A400000140040004001400044014000480140A3
:102A500008B54FF4A060FFF7ABFB1E208DF8000017
:102A600000208DF801008DF8020001208DF8030090
:102A70006846FFF765FB08BD08B525208DF8000006
:102A800002208DF8010000208DF8020001208DF851
:102A900003006846FFF754FB08BD00002DE9F05F16
:102AA00005460E46300103F013FF8146364905FB0B
:102AB00001F003F00DFF8246494603F0BFFD0746D3
:102AC000384603F0CDFE84B2204603F001FF834672
:102AD000394604F073F882464FF0834103F040FF1B
:102AE000814603F0BDFE80464FF6FF7000EA0414F5
:102AF00004EB080084B22548806940F004002349B3
:102B000088610846806940F48040886120480068F8
:102B100020F47F601E4908600846006840F40B609E
:102B200008601A48C06840F480401849C8600846E8
:102B3000C06820F48040C86016480480001D0088EA
:102B400042F20C0108431349091D08800846008819
:102B500040F4807008800846008840F0200008801B
:102B6000FFF78AFF00200C49088048807F2088807A
:102B70000A48886000200A49088048807F208880B1
:102B800008488860BDE8F09F40420F0000100240F6
:102B90000408014008380140740300200C040020A0
:102BA000800300208C03002010B5044600BF4021A4
:102BB000084800F06BF90028F9D02146054800F0DC
:102BC00032FA00BF4021034800F060F90028F9D034
:102BD00010BD00000044004010B540F227711648B7
:102BE00000F061F990B1154800F028FA044621463A
:102BF000114800F018FA114800F019FAD8B900226B
:102C000040F227710C4800F078F914E040F22551A9
:102C1000094800F048F970B1074800F0FFF9084989
:102C2000087008460178074800F012FA40F2255172
:102C3000014800F010F910BD003801407403002075
:102C40003C0000208003002070B504460D46402162
:102C5000104800F0F7F880210E4800F0FCF813E06F
:102C600021780C4800F0DFF900BF4021094800F04E
:102C70000DF90128F9D14021064800F0E3F8802140
:102C8000044800F0E8F8641C2800A5F10105E7D12C
:102C900070BD0000003801407CB504460D4609A017
:102CA0000068019008A000680090022101A8FFF7C9
:102CB000CBFF29462046FFF7C7FF02216846FFF7F2
:102CC000C3FF7CBD03FC0000FC03000008B54FF40B
:102CD000A060FFF76DFA26208DF8000001208DF826
:102CE00001008DF802008DF803006846FFF728FA0E
:102CF00008BD000010B540F22551274800F0D3F878
:102D0000002843D0244800F089F9C4B22348008841
:102D1000012815D1224801880088401C204A1080D3
:102D200020484454104600885E2809D100201146EE
:102D300008801A49088001201B4908801B49088027
:102D40001648008838B9B52C05D1012018490880EB
:102D500000201849088016480088012816D1154817
:102D60000088401C134908800846008805280DDBB0
:102D700000200F4908800F4908805C2C03D10120F6
:102D80000649088002E000200449088040F22551ED
:102D9000014800F060F810BD004400403C010020F4
:102DA000400100208F050020440100204601002042
:102DB0003E0100203401002010B586B004460121F8
:102DC0000520FFF721FA01214804FFF7FDF904204F
:102DD000ADF8140018208DF8170003208DF81600A8
:102DE00005A91648FDF73CFD0820ADF814000420A5
:102DF0008DF8170005A91148FDF732FD0194002058
:102E0000ADF80800ADF80A00ADF80C00ADF8100000
:102E10000C20ADF80E0001A9094800F093F801223A
:102E200040F22551064800F068F80121044800F0FE
:102E300021F8AA20FFF7B8FE06B010BD0008014037
:102E40000044004001F40072B2F5007F00D100BFE1
:102E5000CA430280704710B50022002340F66A146E
:102E6000A14200D100BF0A1201249440A3B2DC4366
:102E7000048010BD21B1828942F40052828104E0B5
:102E800082894DF6FF731A40828170470246002006
:102E9000B1F5007F00D100BF13880B400BB10120BA
:102EA00000E00020704770B5024600240023002592
:102EB000002040F66A16B14200D100BFC1F34215AE
:102EC00001F01F03012606FA03F3012D02D19689B2
:102ED000334006E0022D02D1168A334001E0968A83
:102EE00033400C12012606FA04F41688344013B15C
:102EF0000CB1012000E0002070BDF0B503460024B5
:102F000000260025002040F66A17B94200D100BF14
:102F10001846C1F3421401F01F06012707FA06F50F
:102F2000012C01D10C3004E0022C01D1103000E062
:102F300014301AB107682F43076002E00768AF43F7
:102F40000760F0BD2DE9F04786B005460E46002427
:102F5000A24600BFA1460027B08900B100BF2F469E
:102F60002C8A4CF6FF700440F08804432C82AC8914
:102F70004EF6F3100440B088318908437189084344
:102F80000443AC81AC8A4FF6FF400440B08904434F
:102F9000AC8201A8FFF758F91F48874202D1DDF83B
:102FA00010A001E0DDF80CA0A88900F4004040B1B9
:102FB0000AEBCA0000EB0A1031684900B0FBF1F8D7
:102FC00007E00AEBCA0000EB0A1031688900B0FB89
:102FD000F1F86420B8FBF0F004012009642101FB42
:102FE0001089A88900F4004040B1322000EBC900EC
:102FF000B0FBF1F000F00700044308E0322000EBE2
:1030000009106421B0FBF1F000F00F0004432C81A3
:1030100006B0BDE8F087000000380140014688880E
:10302000C0F308007047C1F3080282807047014670
:1030300008884A88801A8A881040704701464A8862
:103040008B881A408B68985C4A88521C4A8070476B
:10305000028883881A40836899540288521C02802F
:10306000704700BFFEE7490050EAC12018BF0420A6
:103070004A0D18BF40F0010040F2FF72B2EB515F01
:1030800008BF40F00200012808BF0520704741003A
:10309000080218BF04200A0E18BF40F001004FF0CC
:1030A0007F4232EA010108BF40F00200012808BF58
:1030B0000520704701464FF07F40B0EB410F01D132
:1030C000012070470020FCE7014621F00040C0F1DC
:1030D000FF40C00F70472DE9F0414F1E00EBC701C4
:1030E0000446D1E9000115461E4637F006020DD010
:1030F0002A46334602F0F2FE7F1E04EBC703D3E9F3
:10310000002302F06BFC37F00602F1D1022F25D02C
:10311000042F13D0062F18BFBDE8F0812A4633468E
:1031200002F0DCFED4E90A2302F058FC2A463346BA
:1031300002F0D4FED4E9082302F050FC2A463346BC
:1031400002F0CCFED4E9062302F048FC2A463346BE
:1031500002F0C4FED4E9042302F040FC2A463346C0
:1031600002F0BCFED4E9022302F038FC2A463346C2
:1031700002F0B4FED4E90023BDE8F04102F02EBC19
:10318000012203F0CCBD02F029BC002213461046F8
:10319000114602F0DFBC0000024A0020110703F0D4
:1031A000BEBD000001FDFFFF012103F0E6BD03F0FD
:1031B000D1B90021084603F041BA6FF05E0108075B
:1031C00003F0DBBD2DE9F04D0D4614464FF07F4175
:1031D000B1EB440F9EBF4FF0FF312960BDE8F08D89
:1031E0004FF0004040EA0421C4F3C750783810F093
:1031F0001F024A4B4FEA601CC2F120067B44C4F315
:10320000C750A0F178004FEA601003EB800053F83C
:103210002C3008BFD0E901C612D0D0F804C09340CA
:103220002CFA06F73B4387680CFA02FC27FA06F8EB
:10323000C06807FA02F2F0404CEA080C42EA0006C5
:10324000A3FB0132ACFB01C0A6FB016101EB0C0644
:103250008E4234BF4FF0010C4FF0000CC118614496
:10326000BCF1000F02D0814202D903E0814201D2B9
:10327000012000E00020104400F120024FEA9218E3
:103280008006CA0C40EA42304F03C5F8008003F0C4
:1032900007FB8246384603F01BFB6FF0120103F078
:1032A0006CFD0746304603F013FB6FF0250103F079
:1032B00064FD83463946504603F04CF9594603F005
:1032C00049F900F500666FF30B065146304603F0EE
:1032D0007FFC394603F07CFC594603F06FFC104933
:1032E00003F03EFB07460F49304603F039FB3946F1
:1032F00003F030F907460C49304603F031FB3946FC
:1033000003F028F914F0004F08BFBDE8F08DC8F1B4
:10331000805180F000402960BDE8F08DE83C00005D
:10332000DB0FC92F22AAFD290000C92F2DE9F04F7C
:1033300091B000200490A048006B80F00040059000
:103340009D48406B06909C48806B079007AA06A991
:1033500005A802F0BFFA984A0799106D03F000FB28
:103360000546954A0699D06C03F0FAFA0646924A49
:103370000599906C03F0F4FA0746314603F028FCF7
:103380000446294603F024FC0490DDE9040103F01F
:10339000E7FA04468848816C204603F00FFC0B9046
:1033A0000699049803F0DCFA05468348C06C80F067
:1033B00000442946204603F00BFC0C900799049822
:1033C00003F0CEFA05467C48006D80F000442946A3
:1033D000204603F0FDFB0D900DAA0CA90BA802F0EE
:1033E00079FA0C99079803F0BBFA04460D990698F0
:1033F00003F0B6FA0546214603F0EAFB08900D9962
:10340000059803F0ADFA04460B99079803F0A8FA63
:103410000546214603F0DCFB09900B99069803F062
:103420009FFA04460C99059803F09AFA054621463E
:1034300003F0CEFB0A900AAA09A908A802F04AFAEA
:103440000B99084603F08CFA10900999084603F08E
:1034500087FA0F900799084603F082FA0E904FF012
:103460007E50109903F076F803900F9903F072F8EC
:1034700083460E9903F06EF8824603F03FF88046CB
:1034800001F02BF9064600224C4B02F027FD0446C2
:1034900002F072FA4A4908604FF07E50109903F02A
:1034A00059F801900F9903F093FB02900E9903F0E5
:1034B0008FFB039003F022F8064601F00EF9044654
:1034C0000D4606990A9801F0F7F8039003F0E8F921
:1034D00007464FF07C5103F043FA064603F00EF81E
:1034E000824622462B4602F0F9FC804602F044FA5E
:1034F000334948604FF07E50109903F069FB01900A
:103500000F9903F027F883460E9903F061FB82467A
:1035100002F0F4FF804601F0E0F806460F460D99F0
:10352000059801F0C9F8824603F0BAF981464FF0D8
:103530007C5103F015FA804602F0E0FF32463B462C
:10354000CDE9020102F0CAFC044602F015FA1C495A
:1035500088604FF07E50109903F03AFB01900F996C
:1035600003F036FB02900E9902F0F4FF039002F094
:10357000C5FF064601F0B1F804460D460C990898BF
:1035800001F09AF8039003F08BF907464FF07C5155
:1035900003F0E6F9064602F0B1FF804622462B46CC
:1035A00002F09CFC824602F0E7F90549C86000F091
:1035B0003BFF11B0BDE8F08F9C0200200000E03F0F
:1035C00008030020014600BF704700002DE9F04DC0
:1035D0008D4F21F0004A86B005460C46BA452ADBDD
:1035E000AAEB070028430AD08848824501DC1AD19B
:1035F000CDB106B02846BDE8F04DFFF7C1BD844A05
:10360000844B284602F06AFC07460E46824A834BEA
:103610002846214602F062FC06B03A463346BDE831
:10362000F04D02F0DBB90120FCF75DFE06B0BDE80D
:10363000F04DFFF7AABD7A48824542DABAF1795FC8
:103640000BDA2846FFF70FFD042808BFFFF7A4FD9B
:10365000284606B02146BDE8F08D2A460B461046A6
:1036600002F03CFC834602466E480E460B4606219D
:103670007844FFF730FD5A46334602F02FFC80466F
:1036800069488A465A46334604217844FFF723FDA9
:103690005A46334602F022FC00223B4602F09EF9D5
:1036A00002460B464046514602F054FA2A4623464B
:1036B00002F014FC06B02A462346BDE8F04D02F0A5
:1036C0008DB9284624F0004100223D463B4602F0D9
:1036D00039FD4FF0FF3203F022FB06460246534805
:1036E0000F460B4606217844FFF7F5FC32463B4671
:1036F00002F0F4FBCDE900014D4832463B4604217F
:103700007844FFF7E8FC32463B4602F0E7FB002234
:103710002B4602F063F9834602913046394600F0A9
:10372000DCFF804643480D46504517DCDDE90001CB
:103730005A46029B02F00EFA42462B4602F0CEFB9E
:1037400042462B4602F04AF9012203F0E8FA304AD9
:10375000304B02F0E9FD304A304B4CE04FF0000AAC
:1037600052460B46404602F039F9CDE90310524665
:103770002B461046194602F0B1FB32463B4602F09A
:10378000E1FCDDE9033202F0E5F906460F46DDE92A
:1037900000015A46029B02F0DDF9834600910122A6
:1037A0003046394603F0BBFA194A1A4B02F0CAFCFC
:1037B00006460F4601224046294603F0B0FA5A4613
:1037C000009B02F08BFB32463B4602F0ADFD064605
:1037D0000F4601225046294603F0A1FA0E4DDFF8AC
:1037E00058802A46434602F0ADFC32463B4602F082
:1037F000A9FC2A46434602F0A5FC002CD8BF81F064
:10380000004106B0BDE8F08D0000F03F0000F07F01
:10381000075C143326A6913C182D4454FB21F93F34
:103820000000E03F843700009A3700000E370000A8
:10383000243700003333EF3FFB21E93F2DE9F84FF8
:1038400004460D4621F0004000917349814211DC8D
:103850007249884201DC06D12CB120462946BDE8D8
:10386000F84FFFF78DBC6E48002DCCBF6D496E49F7
:10387000BDE8F88F6D49814211DD6D498142D8BFA5
:103880004FF0FF366DDD20462946FFF7ECFB04289C
:1038900008BFFFF781FC20462946BDE8F88F65493F
:1038A000654F25F00045814233DD6449814219DDD1
:1038B000002632464FF080432046294602F08EF81B
:1038C00080468A4601222046294603F028FA002233
:1038D0003B4602F029FD4246534602F03BF90446BE
:1038E0000D463EE001260022BA463B4620462946C8
:1038F00002F074F880460F460022534620462946BF
:1039000002F012FD42463B4602F024F904460D4601
:1039100027E04B4981421BDDDFF828A10226002267
:1039200053462046294602F0D9FA00223B4602F0CF
:1039300055F880460F46002253462046294602F09D
:10394000F3FC42463B4602F005F904460D4608E00A
:10395000032622462B4600203B4902F0FBF8044692
:103960000D4622462B461046194602F0B7FA8B4602
:10397000824602460B4602F0B1FA07460246334839
:1039800088460B4606217844FFF7A5FB52465B4666
:1039900002F0A4FA82462E488B463A464346052159
:1039A0007844FFF798FB3A46434602F097FA0246FE
:1039B0000B46002E504659460CDA02F00FF822460C
:1039C0002B4602F08BFA01B022462B46BDE8F04FA1
:1039D00002F0B8BB02F002F822462B4602F07EFA53
:1039E0001C4A7A4402EBC603D3E9002302F09CFC94
:1039F00022462B4602F098FC174A7A4402EBC60393
:103A0000D3E9002302F09EFB009A002AB8BF81F0A0
:103A10000041BDE8F88F0000000010440000F07F76
:103A2000182D4454FB21F93FFB21F9BF0000DC3F76
:103A30000000203E0000F33F0000F03F0000E63FA2
:103A4000008003400000F83F0000F0BF2635000072
:103A5000E4340000823400004A3400002DE9F04DC7
:103A60009446CCF1000423F000464CEA0404524F83
:103A700046EAD4749A46884621F00042BC4206D8F1
:103A8000454240EA050442EAD474BC4204D9BDE888
:103A9000F04D6246FFF777BBAAF14055A5F17F656F
:103AA00055EA0C040BD0022404EAAA74434DDFF853
:103AB00010E144EAD87452EA000B04D00CE0BDE8EF
:103AC000F04DFFF7BBBE002C14BF012CBDE8F08DFC
:103AD000022C30D0032C32D056EA0C0B0AD0BE4256
:103AE00020D1BA4209D126F0804622F080423346E6
:103AF000114617E000291ADB25E0DFF8C8B0FB44C7
:103B0000002C04BFDBE90001BDE8F08D012C02BFF1
:103B1000DBE9000181F00041BDE8F08D022C0AD004
:103B2000032C0CD0BA4212D1B8F1000F0BDA2348A3
:103B30002549BDE8F08D28462449BDE8F08D28468A
:103B40007146BDE8F08D1D482149BDE8F08D921BFE
:103B500012153C2AC4BF19481D490EDCBAF1000FEA
:103B6000BEBF12F13C0F0020014606DB624601F0A9
:103B7000F1FF21F00041FFF761FE002C08BFBDE816
:103B8000F08D012C04BF81F00041BDE8F08D114A99
:103B9000114B022C07D002F0C7FB2A46BDE8F04DBE
:103BA0000A4B02F0C1BB02F0BFFB2A46BDE8F04D54
:103BB000064B02F0C7BA00000000F07F182D4454F5
:103BC000FB2109C0DE330000FB21F9BFFB210940C6
:103BD000FB21F93F075C143326A6A13C2DE9F047F1
:103BE0004FF0684202EB40030C460546B3F1654FC7
:103BF0003CBF02EB4102B2F1654F7CD2C0F3C75328
:103C0000C1F3C7529A1A1B2A06DD10F0004F14BFE9
:103C100076487748BDE8F08712F11A0F17DA11F0ED
:103C2000004F06D010F0004F0CBF72487248BDE83C
:103C3000F0872146284602F001FD0446FFF727FAE7
:103C4000042808BFFFF7B9FA2046BDE8F087420014
:103C5000B2EB410F25D910F0004F19BF674F684EE6
:103C6000684F694E224685F0004415460A4680F0AA
:103C7000004110460A1A5200B2F1807F40D24840FB
:103C80006249DFF88CA110F0004F18D04FF03F4888
:103C9000384602F09DFF07465146304602F098FF35
:103CA00017E011F0004F04BF00263746E2D010F0B5
:103CB000004F19BF574F584E584F594EDAE74FF043
:103CC0007C58384602F046FC07465146304602F022
:103CD00041FC06464146284602F042FE214602F0DB
:103CE00039FC82462146404602F03AFE294602F05F
:103CF00065FF514600E037E002F0A0FC044604E016
:103D00002146284602F09AFC0446014602F028FEAD
:103D10008046444902F024FE434902F01BFC414620
:103D200002F01EFE414902F015FC414602F018FE69
:103D30003F4902F00FFC414602F012FE3D4902F0FD
:103D400009FC05464146204602F00AFE294602F0DB
:103D500007FE314602F0FEFB214602F0FBFB39462E
:103D6000BDE8F04702F0F6BB4FF07F42B2EB400FE8
:103D700028BFB2EB410F03D2BDE8F047FFF717BAF7
:103D800040EA01035B0008BF44F0FF410AD0B2EBF8
:103D9000400F08BFB2EB410F06D125F0804024F060
:103DA000804105460C4629E7B2EB400F12BF5FEA9F
:103DB000410245F0FF4004F000413FF41FAF4A00CC
:103DC00092EA40033FF51AAF002AACBF4FF09F467E
:103DD0004FF03E56314602F0C3FD054631462046BF
:103DE00002F0BEFD04462846214607E7DB0FC9BFA7
:103DF000DB0FC93FDB0F4940DB0F49C00000C9BFE3
:103E000022AAFDB90000C93F22AAFD390060ED3E9B
:103E1000C30ACE37000049C022AA7DBA000049403B
:103E200022AA7D3A2DAD65BD8FB8D53D0FB511BE27
:103E300061C84C3EA8AAAABEFEB5524880780128A7
:103E400000D1FEBD4F480079002878D04E48008848
:103E500002F03EFD04464D4902F04EFD6FD24A4845
:103E6000008802F035FD0446494902F045FD57D26D
:103E70004448C078012853D100214648006802F028
:103E80009FFC4DD000F0AEFA064602F021FD05463B
:103E900040480168284602F09BFE04463E4902F075
:103EA000CDFB3E4908603E4A91683E4A906802F068
:103EB0008FFE074639480168384602F0BFFB0446CA
:103EC000374A1168374A106802F082FE07463348C5
:103ED0000168384602F0B2FB0546314A5168314A62
:103EE000506802F075FE07462C480168384602F01B
:103EF000A5FB064623462A4631466846FDF784FF61
:103F000029489DE80E000EC000F06CFA044602F04D
:103F1000DFFC204908602248224B0ECB0EC00EE089
:103F20002148224B0ECB0EC01D48204BD3E9002167
:103F30009B68C0E90113026000201649086000F088
:103F400051FA044602F0C4FC194908601948016896
:103F50001748006802F03CFE05460F4902F06EFB70
:103F60000446154A002100F02BFA14490860104855
:103F70000068104908601148006800F08FFC00BF1D
:103F80005FE7000001000020EA0100200000A041DE
:103F90000000A040FC01002000247449F80100202A
:103FA000B4060020A8060020C0060020E406002079
:103FB00008020020040200200AD7A33C00020020CF
:103FC0002DE9F843044602464F486946B0EB420FDC
:103FD00009D94FF0E640B0EB420F94BF00204FF0FC
:103FE000FF30009030E0494B22F00040834271D90D
:103FF0004749204602F0B4FC02F0B0FD804602F0D2
:1040000013FC00F0030000904249404602F0A8FC77
:1040100005464149404602F0A3FC06463F4940465A
:1040200002F09EFC07463E49404602F099FC2146BC
:1040300002F0C4FD394602F0CBFD314602F0C8FD66
:10404000294602F0C5FD04462546009C002C45DBB0
:10405000294614F0010F08461CD002F081FC0646E8
:10406000304902F07DFC304902F0A8FD314602F0F3
:1040700077FC2E4902F06EFA314602F071FC2946B7
:1040800002F06EFC294602F065FA14F0020F1CD013
:10409000BDE8F88302F064FC0546254902F060FCA7
:1040A000244902F057FA294602F05AFC224902F04C
:1040B00051FA294602F054FC4FF07E5102F04AFAC0
:1040C00014F0020F08BFBDE8F88380F00040BDE89F
:1040D000F883FFE71046FFF775F8B4E76800B0F122
:1040E0007F4F3CBF4FF07E50BDE8F88307D14FF0C3
:1040F0000100FCF7F8F8BDE8F843FFF75AB8284686
:10410000BDE8F843FFF750B8B61F927E490E494606
:1041100083F9223F1A61342C0020A23300A0FD391C
:104120000000C93F336D4C39DA82083CA0AA2ABE90
:10413000B93AB2BACA9F2A3DDDFFFFBE00B585B0CD
:104140006846FEF781F804490098B0FBF1F0034996
:10415000086005B000BD000040420F0030000020A4
:1041600070B5044600F03EF9054600BF00F03AF98C
:10417000401B04EB4401C1EBC411B0EBC10FF5D3FC
:1041800070BD70B5044600F02DF9054600BF00F083
:1041900029F9401BA042FAD370BD000000BF054AB8
:1041A000128802F04002002AF9D0C2B2014B1B1D56
:1041B0001A807047003801402DE9FF4104464FF056
:1041C0007F5000904FF07C51204602F0C9FB0290D6
:1041D0000194019803900E490398A1EB60000390AD
:1041E00003980190DDE9011002F0BAFB074601993E
:1041F00002F0B6FB0646009902F0E0FC0546019984
:1042000002F0AEFB0190019804B0BDE8F08100001F
:10421000865A375F70B504460D461A480168204635
:1042200002F06AFB2BD217490868294602F064FBAA
:1042300025D214484168204602F05EFB1FD2114986
:104240004868294602F058FB19D20E48816820467A
:1042500002F052FB13D20B498868294602F04CFB4E
:104260000DD20848C168204602F046FB07D2054936
:10427000C868294602F040FB01D2012070BD002031
:10428000FCE700000803002010B5174800786328F9
:1042900004DBFCF781FD0020134908701348007807
:1042A000322804DBFCF780FD00201049087010481C
:1042B0000078142804DBFCF778FD00200C49087016
:1042C0000C4800780A2804DBFCF754FD002009495B
:1042D000087009480078052804DBFCF761FD002020
:1042E0000549087010BD0000410000204200002078
:1042F0004300002044000020450000200920FEF774
:1043000049F9FFF71BFF284800684FF47A72B0FBA9
:10431000F2F1B1F1807F00D31DE021F07F40401E1B
:104320004FF0E022506150170F22002807DA1307E0
:104330001D0E1E4B00F00F04241F1D5503E0130734
:104340001C0E1B4B1C5400BF00204FF0E02290615C
:104350000720106100BF4FF4966116480078FEF701
:104360009DFB4FF41640FEF727FDFDF7D7FF4FF4F6
:104370007A7110480078FEF7BDF9FDF7D6FEFDF71B
:1043800091FB01200C4908700C48FDF72DFBFCF750
:10439000CBFCFDF70BFB002007498870087101E09A
:1043A000FFF772FFFCE700000800002018ED00E0B6
:1043B00000E400E040000020010000209C020020FA
:1043C00070B506460D4614462146304602F094FB71
:1043D00000D226462946304602F08EFA00D22E46FA
:1043E000304670BD00BF0E4801684FF0E020826982
:1043F0000B4800688142F6D10A48006800EB400390
:10440000C3EBC010C2EBC000064B1B68B0FBF3F05F
:1044100001EB4103C3EBC11300EBC3007047000085
:1044200034000020300000202DE9F05F214AD168DF
:10443000D06802F095FA80461E4A9168906802F0B2
:104440008FFA81461B4A5168506802F089FA824609
:10445000184A1168106802F083FA8346514602F048
:1044600079F80646494602F075F80546414602F0DD
:1044700071F804462046FFF79FFE07460D4908687D
:10448000394602F06DFA0B4908604868394602F077
:1044900067FA084948608868394602F061FA0549B8
:1044A0008860C868394602F05BFA0249C860BDE816
:1044B000F09F0000080300202DE9FF5F04467C48C0
:1044C000006800907A4840680190794880680290BE
:1044D0007748C0680390774801684FF07C5002F03D
:1044E0003FFA8046039902F03BFA0746A16802F0C2
:1044F00037FA05466F4801684FF07C5002F030FAF9
:104500008246029902F02CFA8146616802F028FA8C
:104510000746684801684FF07C5002F021FA834654
:10452000019902F01DFA8246216802F019FA8146CB
:10453000009902F043FB8046394602F049FB0646EB
:10454000294602F045FB5A4908605A4801684FF075
:104550007C5002F005FA8046039902F001FA074602
:10456000616802F0FDF90546524801684FF07C5041
:1045700002F0F6F98246029902F0F2F98146A1684A
:1045800002F0EEF907464FF07C51009802F0E8F98E
:10459000834648480168584602F0E2F9824621689D
:1045A00002F0DEF98146019901F0D4FF80463946D8
:1045B00001F0D0FF0646294602F00AFB3C4948605C
:1045C0003C4801684FF07C5002F0CAF90746039955
:1045D00002F0C6F90546216802F0C2F906463548E0
:1045E00001684FF07C5002F0BBF98346019902F05C
:1045F000B7F98246A16802F0B3F905464FF07C5145
:10460000009802F0ADF983462A480168584602F046
:10461000A7F98246616802F0A3F90746294602F02D
:10462000D7FA8146029901F095FF8046314601F0A4
:1046300091FF1F4988601F4801684FF07C5002F0CD
:104640008FF98146029902F08BF98046A16802F049
:1046500087F90546174801684FF07C5002F080F951
:104660008346019902F07CF98246616802F078F98C
:1046700081464FF07C51009802F072F983460D4854
:104680000168584602F06CF98246A16802F068F9A8
:104690008046494601F05EFF0746294602F098FA37
:1046A0000646039901F056FF0149C860BDE8FF9F27
:1046B000080300200002002070B504460D4629467C
:1046C000204602F085FA0646002102F015FA01D2D2
:1046D000012070BD4FF0FF30FBE72DE9F0410646A9
:1046E0000F4601F03BFD04000D4618BF0120284392
:1046F00020F00040C0F17F6000F1E040C00F0ED01C
:10470000301C18BF0120384320F00040C0F17F600A
:1047100000F1E040C00F04BF0120FBF7E4FD20469C
:104720002946BDE8F08100002DE9F8430446024621
:104730004C486946B0EB420F09D94FF0E640B0EB68
:10474000420F94BF00204FF0FF30009030E0464B06
:1047500022F00040834265D94449204602F000F926
:1047600002F0FCF9804602F05FF800F003000090D0
:104770003F49404602F0F4F805463E49404602F003
:10478000EFF806463C49404602F0EAF807463B4946
:10479000404602F0E5F8214602F010FA394602F0F0
:1047A00017FA314602F014FA294602F011FA0446CB
:1047B000009D002D3ADB2146084602F0D1F806465E
:1047C0002F4902F0CDF82F4901F0C4FE314602F026
:1047D000C7F82D4901F0BEFE314602F0C1F82B4961
:1047E00001F0B8FE314602F0BBF8294901F0B2FEF3
:1047F000314602F0B5F8274901F0ACFE314602F02F
:10480000AFF8214602F0ACF8214601F0A3FE15F006
:10481000010F08BFBDE8F8830146BDE8F8431E4814
:1048200001F00CBF1046FEF7CDFCC0E76000B0F110
:104830007F4F09D22046FEF72AFC042808BFFEF766
:10484000BCFC2046BDE8F88306D10120FBF74BFDF8
:10485000BDE8F843FEF7ADBC2046BDE8F843FEF7DF
:10486000A3BC0000B61F927E490E494683F9223F41
:104870001A61342C0020A23300A0FD390000C93F8A
:10488000BBE9223C0C6D063B8A76CE3CACB5593D6B
:1048900035A1083E29AAAA3E000080BF11B5A5B0E7
:1048A0000020209021902290FE48C07800287CD1E2
:1048B000FEF73CFD4FF07E51FB48FFF7ABFC0028B4
:1048C00074D0FA48C0680690F848C0680590069908
:1048D00002F046F80890F54880680490F348806834
:1048E0000390049902F03CF80690F048406802906A
:1048F000EE4840680190029902F032F80490EB48CB
:1049000000680290E94800680190029902F028F8D6
:104910000390049901F01EFE0590069901F01AFE1D
:104920000790089901F016FE099001F0E7FDCDE926
:104930000A01FFF7D2FE4FF04042DD4BCDE90C01FA
:1049400001F090FA47D2D948C0680690D748C068AD
:104950000590069902F004F80890D4488068049005
:10496000D24880680390049901F0FAFF0690CF487E
:1049700040680290CD4840680190029901F0F0FF34
:104980000490CA4800680290C848006801900299E3
:1049900001F0E6FF0390049901F0DCFD0590069913
:1049A00001F0D8FD0790089901E017E013E001F04D
:1049B000D1FD099001F0A2FDCDE90A01FFF78DFEBE
:1049C0004FF0C042BB4BCDE90C0101F085FB02D298
:1049D0000120B449C870002026B010BDB34B0FCBE6
:1049E0001CAC0FC4B44A111F081F00F073FFAF487E
:1049F00080680690AD4800680590069901F0B0FF08
:104A00000890AA48C0680690A84840680590069992
:104A100001F0A6FF0790089901F09CFD4FF080413E
:104A2000099001F09DFF0B90A3485038006D80F075
:104A300000400A900B9901F093FF0D909B48C068CD
:104A400004909A4800680390049901F089FF069049
:104A5000964880680490954840680390049901F056
:104A60007FFF0590069902F0B3F84FF08041079060
:104A700001F076FF099090485038C06C80F00040FB
:104A80000890099901F06CFF0B908848C068069067
:104A90008648C0680590069901F062FF0890834837
:104AA00080680490814880680390049901F058FF61
:104AB00006907E48406802907C48406801900299C8
:104AC00001F04EFF04907948006802907748006832
:104AD0000190029901F044FF0390049901F03AFD1E
:104AE0000590069902F074F80790089902F070F8A2
:104AF000099071485038806C01460890099801F07F
:104B00002FFF0A900B9901F025FD0C900D9901F0F3
:104B100021FD19906548406806906448006805903A
:104B2000069901F01DFF08906048806806905F4874
:104B3000C0680590069901F013FF0790089902F0EC
:104B400047F84FF08041099001F00AFF0B905A4856
:104B50005038006D80F000400A900B9901F000FF82
:104B60000D905248C06805905048C068049005995F
:104B700001F0F6FE07904D48806803904B4880682E
:104B80000290039901F0ECFE0590484840680190BE
:104B9000464840680090019901F0E2FE03904348C6
:104BA00000680190414800680090019901F0D8FE2A
:104BB0000290039902F00CF80490059901F0CAFCE8
:104BC0000690079902F004F809903B485038C06CF1
:104BD00080F000400890099901F0C2FE0B90334824
:104BE000C0680590314800680490059901F0B8FE4E
:104BF00007902E48806805902C48406804900599DD
:104C000001F0AEFE0690079901F0A4FC4FF0804140
:104C1000089001F0A5FE099027485038806C0146A5
:104C20000890099801F09CFE0A900B9901F092FC03
:104C30000C900D9901F08EFC1A901C48C0680790EA
:104C40001A48C0680690079901F08AFE0990174833
:104C500080680590154880680490059901F080FEF1
:104C600007901248406803901048406802900399EA
:104C700001F076FE05900D48006803900B4800682F
:104C80000290039901F06CFE0490059901F0A0FFD9
:104C90000690079901F09CFF0890099901F05AFCD1
:104CA0000B900BE001000020000080BF08030020F3
:104CB000CCCCF03F6666EE3FEC020020FE48006D73
:104CC00080F000400A900B9901F04AFE0D90FB48DD
:104CD00040680490F94800680390049901F040FE90
:104CE0000690F648C0680490F448806803900499E0
:104CF00001F036FE0590069901F02CFC4FF0804142
:104D0000079001F02DFE0990EB48C06C80F0004048
:104D10000890099901F024FE0B90E84880680590FE
:104D2000E64800680490059901F01AFE0790E348F0
:104D3000C0680590E14840680490059901F010FEB4
:104D40000690079901F044FF4FF08041089001F070
:104D500007FE0990D848806C01460890099801F038
:104D6000FFFD0A900B9901F0F5FB0C900D9901F0F5
:104D7000F1FB1B90D248007900287DD0199805904E
:104D80001A9804900599FEF729FF069000F0E0FDBF
:104D9000079001F0B3FBCB4ACB4BCDE9080101F002
:104DA0009DF80022C94BCDE90A0100F0D3FECDE900
:104DB0000C0100F0E1FD2490002211460BA8249B79
:104DC000FDF722F80BA807C813AB07C313980C9084
:104DD000BF4801680C9801F0C3FD0D902098014672
:104DE0000C900D9801F0B6FB209014980C90B848E8
:104DF00001680C9801F0B4FD0D90219801460C90CB
:104E00000D9801F0A7FB219015980C90B04801680F
:104E10000C9801F0A5FD0D90229801460C900D987C
:104E200001F098FB2290FFF7FFFAA44880680A90EF
:104E3000A248006809900A9901F092FD0C909F48E1
:104E4000C0680A909D48406809900A9901F088FD61
:104E50000B900C9901F0BCFE4FF080410D9001F0D9
:104E60007FFD1690954840680A9094480068099024
:104E70000A9901F075FD00E05AE10C908F48C06876
:104E80000A908E48806809900A9901F069FD0B909C
:104E90000C9901F05FFB4FF080410D9001F060FD37
:104EA00017908648C0680B908448C0680A900B9998
:104EB00001F056FD0D908148806809907F48806818
:104EC0000890099901F04CFD0B907C4840680790D0
:104ED0007A4840680690079901F042FD09907748AA
:104EE00000680790754800680690079901F038FD42
:104EF0000890099901F06CFE0A900B9901F068FE88
:104F00000C900D9901F026FB18907248806809906A
:104F10006948806B0890099901F05AFE0B906D4822
:104F2000806809906448806B0890099901F050FEF0
:104F30000A900B9901F014FD0D90664840680790A7
:104F40005D48406B0690079901F042FE0990614868
:104F5000406807905848406B0690079901F038FE6A
:104F60000890099901F0FCFC0B905348006B80F00D
:104F7000004007905748006801460690079801F0E6
:104F800027FE09904C48006B80F000400790514884
:104F9000006801460690079801F01AFE08900999EA
:104FA00001F0DEFC0A900B9901F0D4FA0C900D99F7
:104FB00001F0D0FA23902398FFF7FEF8239045489C
:104FC000806807903C48806B0690079901F000FECE
:104FD0000890179801460790089801F0C1FC0A90C4
:104FE0003C48406807903448406B0690079901F0B0
:104FF000EFFD0890189801460790089801F0B0FC62
:1050000009900A9901F0E4FD0B90239901F0A8FCA6
:105010000C90314801680C9801F0A2FC0D9020988A
:1050200001460C900D9801F095FA209029480068EF
:1050300007902148006B0690079901F0C9FD089080
:10504000189801460790089801F08AFC0A902148B8
:10505000806807901848806B0690079901F0B8FDAA
:105060000890169801460790089801F079FC09907D
:105070000A9901F0ADFD0B90239901F071FC0C90A1
:10508000154801680C9801F06BFC0D9021980146C1
:105090000C900D9801F05EFA21900E484068079040
:1050A0000548406B0690079901F092FD089016980C
:1050B00001460790089811E09C0200200803002098
:1050C000010000204AD8124DFB21094000806640B3
:1050D0000C020020C00600201002002001F040FC5D
:1050E0000A90FE4800680790FD48006B06900799FB
:1050F00001F06EFD0890179801460790089801F09E
:105100002FFC09900A9901F063FD0B90239901F09F
:1051100027FC0C90F34801680C9801F021FC0D90DD
:10512000229801460C900D9801F014FA22905EE24C
:105130001A9806900146059001F012FC0890199803
:1051400006900146059001F00BFC0790089901F0CC
:1051500001FA099001F0D2F9CDE90A01FFF7BDFA91
:10516000CDE90C0100F008FC12901B981190DE486C
:1051700080680890DC4800680790089901F0F0FB0F
:105180000A90D948C0680890D748406807900899A5
:1051900001F0E6FB09900A9901F01AFD0B901199B4
:1051A00001F0DEFB0D90D048C0680890CE48C06882
:1051B0000790089901F0D4FB0A90CB4880680790CB
:1051C000C94880680690079901F0CAFB4FF07C51EE
:1051D000089001F0F3FC09900A9901F0F9FC0B909A
:1051E000129901F0BDFB0C900D9901F0B3F91090EC
:1051F000BD48C0680890BC4880680790089901F0D5
:10520000AFFB0A90B84840680890B748006807901C
:10521000089901F0A5FB09900A9901F09BF90B9000
:10522000119901F09DFB0D90AF48C0680890AE4801
:1052300000680790089901F093FB0A90AA488068DB
:105240000890A94840680790089901F089FB0990E7
:105250000A9901F0BDFC0B90129901F081FB0C90B2
:105260000D9901F077F90F909F48806808909E484B
:1052700080680790089901F073FB0A909A4840688B
:105280000790994840680690079901F069FB4FF034
:105290007C51089001F092FC09900A9901F098FC69
:1052A0000B90119901F05CFB0D908F48C06808903D
:1052B0008D4840680790089901F052FB0A908A488F
:1052C00080680890884800680790089901F048FBBA
:1052D00009900A9901F03EF90B90129901F040FBF8
:1052E0000C900D9901F036F90E907D48006D80F01C
:1052F000004009900F9901F033FB0B907848C06C87
:1053000080F0004009900E9901F02AFB0A900B9959
:1053100001F05EFC0C90754801680C9801F020FBD0
:105320000D90209801460C900D9801F013F92090F3
:105330006B48806C09900E9901F012FB0B90684845
:10534000006D80F000400990109901F009FB0A906F
:105350000B9901F03DFC0C90644801680C9801F039
:10536000FFFA0D90219801460C900D9801F0F2F88B
:1053700021905B48C06C80F000400990109901F0CA
:10538000EFFA0B905648806C09900F9901F0E8FAFB
:105390000A900B9901F01CFC0C90544801680C9881
:1053A00001F0DEFA0D90229801460C900D9801F064
:1053B000D1F822904C4880680A904B4800680990C8
:1053C0000A9901F0CDFA0C904748C0680A90464807
:1053D000406809900A9901F0C3FA0B900C9901F00A
:1053E000F7FB4FF080410D9001F0BAFA16903E485D
:1053F00040680A903C48006809900A9901F0B0FAA8
:105400000C903948C0680A903748806809900A991A
:1054100001F0A6FA0B900C9901F09CF84FF0804136
:105420000D9001F09DFA17902F48C0680B902E4800
:10543000C0680A900B9901F093FA0D902A48806891
:105440000990294880680890099901F089FA0B9021
:10545000254840680790244840680690079901F065
:105460007FFA09902048006807901F48006806905E
:10547000079901F075FA0890099901F0A9FB0A90C3
:105480000B9901F0A5FB0C900D9901F063F81890B1
:105490001348806B0A901248806B09900A9901F0BA
:1054A0005FFA0C900E48406B08900D48406B0790D7
:1054B000089901F055FA0A900948006B08900848CD
:1054C000006B0790089901F04BFA09900A9901F0D6
:1054D00041F80B900C9901F03DF809E0C00600205E
:1054E0009C02002010020020080300200C02002073
:1054F0000D90FEF761FE239017980890E648806BA8
:105500000790089901F02CFA0A9018980890E24840
:10551000406B0790089901F023FA09900A9901F06D
:1055200057FB0B90239901F01BFA0C90DB480168A4
:105530000C9801F015FA0D90209801460C900D98EA
:1055400001F008F82090D448006B80F000400890EB
:10555000189801460790089801F002FA0A901698E8
:105560000890CD48806B0790089901F0F9F90990EF
:105570000A9901F02DFB0B90239901F0F1F90C90A1
:10558000C64801680C9801F0EBF90D90219801468E
:105590000C900D9800F0DEFF219016980890BE4800
:1055A000406B0790089901F0DBF90A90BA48006B4C
:1055B00080F000400890179801460790089801F085
:1055C000CFF909900A9901F003FB0B90239901F0A0
:1055D000C7F90C90B14801680C9801F0C1F90D9021
:1055E000229801460C900D9800F0B4FF229020986C
:1055F0000B90AB4801680B9801F0B2F90C9025991B
:1056000001F0AEF9A74AA8490D90FEF7D9FEA749C7
:10561000086021980B90A24801680B9801F0A0F94E
:105620000C90259901F09CF99E4A9F490D90FEF738
:10563000C7FE9E49486022980B90994801680B98D4
:1056400001F08EF90C90259901F08AF9954A964956
:105650000D90FEF7B5FE95498860084600680690F3
:105660008D48C06B0590069900F074FF079000F01C
:1056700045FF8F4A8F4BCDE9080100F02FFC002237
:105680008D4BCDE90A0100F065FACDE90C0100F07F
:1056900073F98A4908608048006C80F000400690E9
:1056A0008248406801460590069800F053FF079035
:1056B00000F024FF7E4A7F4BCDE9080100F00EFC8C
:1056C00000227D4BCDE90A0100F044FACDE90C013E
:1056D00000F052F9794948606F48406C80F0004012
:1056E00006907248806801460590069800F032FFE7
:1056F000079000F003FF6E4A6E4BCDE9080100F001
:10570000EDFB00226C4BCDE90A0100F023FACDE954
:105710000C0100F031F969498860084600680D9075
:1057200020980C900D9900F015FF20906348406878
:105730000D9021980C900D9900F00CFF21905F487E
:1057400080680D9022980C900D9900F003FF229034
:1057500020A8FEF7B1FEFEF767FE4FF07E515848D5
:10576000FEF758FD00287CD05648C0680690554882
:10577000C0680590069901F0F3F8089051488068D8
:105780000490504880680390049901F0E9F806906D
:105790004C48406802904B4840680190029901F0E3
:1057A000DFF804904748006802904648006801907E
:1057B000029901F0D5F80390049900F0CBFE059012
:1057C000069900F0C7FE0790089900F0C3FE099003
:1057D00000F094FECDE90A01FEF77FFF4FF0404252
:1057E000394BCDE90C0100F03DFB46D23548C0688D
:1057F00006903448C0680590069901F0B1F8089009
:105800003048806804902F4880680390049901F024
:10581000A7F806902B48406802902A4840680190FB
:10582000029901F09DF804902648006802902548EE
:1058300000680190029901F093F80390049900F038
:1058400089FE0590069900F085FE0790089900F002
:1058500081FE099000F052FECDE90A01FEF73DFFFE
:1058600000E00AE04FF0C042184BCDE90C0100F017
:1058700033FC02D20120FFF7AFB812481CA91EC9A1
:105880001EC00E48124B0ECB0EC00849104B0DCB5C
:105890000DC10020EFE700009C0200201002002054
:1058A00014020020CDCCCC3DCDCCCCBDCC0600200C
:1058B0004AD8124DFB21094000806640D8060020DE
:1058C000000080BF08030020CCCCF03F6666EE3FAE
:1058D000E40600202DE9F84F044689469246DAF89E
:1058E0000010084601F03CF80646D9F800100846BA
:1058F00001F036F807462168084601F031F8804685
:10590000394600F027FE0546314600F023FE834667
:10591000584600F0F3FD0746FEF7DFFE054600F0AF
:105920002BF800902068009900F088FE2060D9F8DC
:105930000000009900F082FEC9F80000DAF80000CB
:10594000009900F07BFECAF80000BDE8F88F000067
:1059500010B504460649204601F0CEF800D2044CAA
:105960000449204600F0C8FF00D2024C204610BD7A
:1059700000003443000034C321F00042A2F1605221
:10598000B2F5801F01F0004328BFD2F17F6C0BD924
:105990005FEA001C43EAC20242EB507018BF704736
:1059A00028BF20F001007047B2F5801FBCBF184629
:1059B00070474FEA410C1CF5001F02D2084601F067
:1059C00096B870B500F034FB00000089FFF7F6BF11
:1059D0004FF00040A0F580007047000010B591EA3C
:1059E000030F48BF83F0004300F1A684841A71EBD3
:1059F000030C05D2121943EB0C03001B61EB0C01E5
:105A0000DFF824E14FEA1154A4EB135C1EEA430FC4
:105A100018BF9EEA445F73D023EA0E03DCF1200E28
:105A200021EA045143F4801332D322FA0CFE10EB26
:105A30000E0023FA0CFE41EB0E01CCF1200E03FA0E
:105A40000EFE10EB0E0051F10001B1F5801FCCF1FC
:105A5000200E32D201EB045112FA0EF2BDE81040D2
:105A600058BF7047401C38BF5FEA420218BF7047FA
:105A7000002814BF20F0010041F100014FEA41036A
:105A800013F5001F38BF7047A1F1C04100F01EBBE5
:105A9000012A43EB0302ACF1200CDCF11F0E32BFF4
:105AA0004FF0000E23FA0CF310EB030041EB04510E
:105AB000B4EB115FD0D0A1EB045101F5801149087E
:105AC0005FEA300001EB04510ED350F1000038BF03
:105AD00012FA0EFE08D1BDE81040C9E7401C38BFDD
